{
  "address": "0xD56213aB9740e195F2b9f5FaFB5f324466c34edC",
  "abi": [
    {
      "inputs": [
        {
          "internalType": "contract ISuperfluid",
          "name": "_host",
          "type": "address"
        },
        {
          "internalType": "contract ISuperToken",
          "name": "_spreaderToken",
          "type": "address"
        }
      ],
      "stateMutability": "nonpayable",
      "type": "constructor"
    },
    {
      "inputs": [],
      "name": "INDEX_ID",
      "outputs": [
        {
          "internalType": "uint32",
          "name": "",
          "type": "uint32"
        }
      ],
      "stateMutability": "view",
      "type": "function"
    },
    {
      "inputs": [
        {
          "internalType": "address",
          "name": "subscriber",
          "type": "address"
        }
      ],
      "name": "deleteShares",
      "outputs": [],
      "stateMutability": "nonpayable",
      "type": "function"
    },
    {
      "inputs": [
        {
          "internalType": "uint256",
          "name": "amount",
          "type": "uint256"
        }
      ],
      "name": "distribute",
      "outputs": [],
      "stateMutability": "nonpayable",
      "type": "function"
    },
    {
      "inputs": [
        {
          "internalType": "address",
          "name": "subscriber",
          "type": "address"
        },
        {
          "internalType": "uint256",
          "name": "units",
          "type": "uint256"
        }
      ],
      "name": "gainShare",
      "outputs": [],
      "stateMutability": "nonpayable",
      "type": "function"
    },
    {
      "inputs": [],
      "name": "idaV1",
      "outputs": [
        {
          "internalType": "contract ISuperfluid",
          "name": "host",
          "type": "address"
        },
        {
          "internalType": "contract IInstantDistributionAgreementV1",
          "name": "ida",
          "type": "address"
        }
      ],
      "stateMutability": "view",
      "type": "function"
    },
    {
      "inputs": [
        {
          "internalType": "address",
          "name": "subscriber",
          "type": "address"
        }
      ],
      "name": "loseShare",
      "outputs": [],
      "stateMutability": "nonpayable",
      "type": "function"
    },
    {
      "inputs": [],
      "name": "spreaderToken",
      "outputs": [
        {
          "internalType": "contract ISuperToken",
          "name": "",
          "type": "address"
        }
      ],
      "stateMutability": "view",
      "type": "function"
    }
  ],
  "transactionHash": "0x3a1ce056e78f1fbf3185ddc20bbda6cde5480a285ac51e8ba003db5ffeb831c1",
  "args": [
    "0x74b57883f8ce9F2BD330286E884CfD8BB24AC4ED",
    "0x04d4f73e9DE52a8fEC544087a66BBbA660A35957"
  ],
  "numDeployments": 2,
  "solcInputHash": "f1f181a0549f3d42433610169a0972ba",
  "bytecode": "0x60806040523480156200001157600080fd5b50604051620021133803806200211383398181016040528101906200003791906200052d565b806000806101000a81548173ffffffffffffffffffffffffffffffffffffffff021916908373ffffffffffffffffffffffffffffffffffffffff16021790555060405180604001604052808373ffffffffffffffffffffffffffffffffffffffff1681526020018373ffffffffffffffffffffffffffffffffffffffff1663b6d200de7f8aedc3b5d4bf031e11a7e2940f7251c005698405d58e02e1c247fed3b1b3a6746040518263ffffffff1660e01b8152600401620000f991906200058f565b602060405180830381865afa15801562000117573d6000803e3d6000fd5b505050506040513d601f19601f820116820180604052508101906200013d9190620005f1565b73ffffffffffffffffffffffffffffffffffffffff16815250600160008201518160000160006101000a81548173ffffffffffffffffffffffffffffffffffffffff021916908373ffffffffffffffffffffffffffffffffffffffff16021790555060208201518160010160006101000a81548173ffffffffffffffffffffffffffffffffffffffff021916908373ffffffffffffffffffffffffffffffffffffffff1602179055509050506200022760008054906101000a900473ffffffffffffffffffffffffffffffffffffffff16600060016200022f60201b620004eb179092919060201c565b50506200099a565b62000294838383600067ffffffffffffffff81111562000254576200025362000623565b5b6040519080825280601f01601f191660200182016040528015620002875781602001600182028036833780820191505090505b506200029960201b60201c565b505050565b8360000160009054906101000a900473ffffffffffffffffffffffffffffffffffffffff1673ffffffffffffffffffffffffffffffffffffffff166339255d5b8560010160009054906101000a900473ffffffffffffffffffffffffffffffffffffffff168660010160009054906101000a900473ffffffffffffffffffffffffffffffffffffffff1673ffffffffffffffffffffffffffffffffffffffff1663d787840a8787600067ffffffffffffffff8111156200035e576200035d62000623565b5b6040519080825280601f01601f191660200182016040528015620003915781602001600182028036833780820191505090505b50604051602401620003a69392919062000782565b604051602081830303815290604052915060e01b6020820180517bffffffffffffffffffffffffffffffffffffffffffffffffffffffff8381831617835250505050846040518463ffffffff1660e01b81526004016200040993929190620007eb565b6000604051808303816000875af115801562000429573d6000803e3d6000fd5b505050506040513d6000823e3d601f19601f8201168201806040525081019062000454919062000949565b5050505050565b6000604051905090565b600080fd5b600080fd5b600073ffffffffffffffffffffffffffffffffffffffff82169050919050565b60006200049c826200046f565b9050919050565b6000620004b0826200048f565b9050919050565b620004c281620004a3565b8114620004ce57600080fd5b50565b600081519050620004e281620004b7565b92915050565b6000620004f5826200048f565b9050919050565b6200050781620004e8565b81146200051357600080fd5b50565b6000815190506200052781620004fc565b92915050565b6000806040838503121562000547576200054662000465565b5b60006200055785828601620004d1565b92505060206200056a8582860162000516565b9150509250929050565b6000819050919050565b620005898162000574565b82525050565b6000602082019050620005a660008301846200057e565b92915050565b6000620005b9826200048f565b9050919050565b620005cb81620005ac565b8114620005d757600080fd5b50565b600081519050620005eb81620005c0565b92915050565b6000602082840312156200060a576200060962000465565b5b60006200061a84828501620005da565b91505092915050565b7f4e487b7100000000000000000000000000000000000000000000000000000000600052604160045260246000fd5b6000819050919050565b60006200067d6200067762000671846200046f565b62000652565b6200046f565b9050919050565b600062000691826200065c565b9050919050565b6000620006a58262000684565b9050919050565b620006b78162000698565b82525050565b600063ffffffff82169050919050565b620006d881620006bd565b82525050565b600081519050919050565b600082825260208201905092915050565b60005b838110156200071a578082015181840152602081019050620006fd565b838111156200072a576000848401525b50505050565b6000601f19601f8301169050919050565b60006200074e82620006de565b6200075a8185620006e9565b93506200076c818560208601620006fa565b620007778162000730565b840191505092915050565b6000606082019050620007996000830186620006ac565b620007a86020830185620006cd565b8181036040830152620007bc818462000741565b9050949350505050565b6000620007d38262000684565b9050919050565b620007e581620007c6565b82525050565b6000606082019050620008026000830186620007da565b818103602083015262000816818562000741565b905081810360408301526200082c818462000741565b9050949350505050565b600080fd5b600080fd5b6200084b8262000730565b810181811067ffffffffffffffff821117156200086d576200086c62000623565b5b80604052505050565b6000620008826200045b565b905062000890828262000840565b919050565b600067ffffffffffffffff821115620008b357620008b262000623565b5b620008be8262000730565b9050602081019050919050565b6000620008e2620008dc8462000895565b62000876565b9050828152602081018484840111156200090157620009006200083b565b5b6200090e848285620006fa565b509392505050565b600082601f8301126200092e576200092d62000836565b5b815162000940848260208601620008cb565b91505092915050565b60006020828403121562000962576200096162000465565b5b600082015167ffffffffffffffff8111156200098357620009826200046a565b5b620009918482850162000916565b91505092915050565b61176980620009aa6000396000f3fe608060405234801561001057600080fd5b506004361061007d5760003560e01c8063844a5f5f1161005b578063844a5f5f146100d95780638c7f0959146100f757806391c05b0b14610115578063d58a8828146101315761007d565b80631cc8ca99146100825780632268cacb146100a15780634f514382146100bd575b600080fd5b61008a61014d565b604051610098929190610eb6565b60405180910390f35b6100bb60048036038101906100b69190610f31565b61019f565b005b6100d760048036038101906100d29190610f94565b6101dd565b005b6100e161027c565b6040516100ee9190610ff5565b60405180910390f35b6100ff6102a0565b60405161010c919061102f565b60405180910390f35b61012f600480360381019061012a919061104a565b6102a5565b005b61014b60048036038101906101469190610f31565b61044c565b005b60018060000160009054906101000a900473ffffffffffffffffffffffffffffffffffffffff16908060010160009054906101000a900473ffffffffffffffffffffffffffffffffffffffff16905082565b6101da60008054906101000a900473ffffffffffffffffffffffffffffffffffffffff1630600084600161054990949392919063ffffffff16565b50565b600061021a60008054906101000a900473ffffffffffffffffffffffffffffffffffffffff163060008660016105ab90949392919063ffffffff16565b506fffffffffffffffffffffffffffffffff169250505061027760008054906101000a900473ffffffffffffffffffffffffffffffffffffffff16600085858561026491906110a6565b600161066990949392919063ffffffff16565b505050565b60008054906101000a900473ffffffffffffffffffffffffffffffffffffffff1681565b600081565b60008054906101000a900473ffffffffffffffffffffffffffffffffffffffff1673ffffffffffffffffffffffffffffffffffffffff166323b872dd3330846040518463ffffffff1660e01b81526004016103029392919061111a565b6020604051808303816000875af1158015610321573d6000803e3d6000fd5b505050506040513d601f19601f820116820180604052508101906103459190611189565b5060006001800160009054906101000a900473ffffffffffffffffffffffffffffffffffffffff1673ffffffffffffffffffffffffffffffffffffffff1663899baaec60008054906101000a900473ffffffffffffffffffffffffffffffffffffffff16306000866040518563ffffffff1660e01b81526004016103cc94939291906111b6565b6040805180830381865afa1580156103e8573d6000803e3d6000fd5b505050506040513d601f19601f8201168201806040525081019061040c9190611258565b50905061044860008054906101000a900473ffffffffffffffffffffffffffffffffffffffff1660008360016106cb909392919063ffffffff16565b5050565b600061048960008054906101000a900473ffffffffffffffffffffffffffffffffffffffff163060008560016105ab90949392919063ffffffff16565b506fffffffffffffffffffffffffffffffff16925050506104e760008054906101000a900473ffffffffffffffffffffffffffffffffffffffff166000846001856104d49190611298565b600161066990949392919063ffffffff16565b5050565b610544838383600067ffffffffffffffff81111561050c5761050b6112cc565b5b6040519080825280601f01601f19166020018201604052801561053e5781602001600182028036833780820191505090505b5061072b565b505050565b6105a48585858585600067ffffffffffffffff81111561056c5761056b6112cc565b5b6040519080825280601f01601f19166020018201604052801561059e5781602001600182028036833780820191505090505b506108e2565b5050505050565b6000806000808860010160009054906101000a900473ffffffffffffffffffffffffffffffffffffffff1673ffffffffffffffffffffffffffffffffffffffff16635b534051898989896040518563ffffffff1660e01b8152600401610614949392919061131c565b608060405180830381865afa158015610631573d6000803e3d6000fd5b505050506040513d601f19601f820116820180604052508101906106559190611361565b935093509350935095509550955095915050565b6106c48585858585600067ffffffffffffffff81111561068c5761068b6112cc565b5b6040519080825280601f01601f1916602001820160405280156106be5781602001600182028036833780820191505090505b50610a9f565b5050505050565b61072584848484600067ffffffffffffffff8111156106ed576106ec6112cc565b5b6040519080825280601f01601f19166020018201604052801561071f5781602001600182028036833780820191505090505b50610c5c565b50505050565b8360000160009054906101000a900473ffffffffffffffffffffffffffffffffffffffff1673ffffffffffffffffffffffffffffffffffffffff166339255d5b8560010160009054906101000a900473ffffffffffffffffffffffffffffffffffffffff168660010160009054906101000a900473ffffffffffffffffffffffffffffffffffffffff1673ffffffffffffffffffffffffffffffffffffffff1663d787840a8787600067ffffffffffffffff8111156107ed576107ec6112cc565b5b6040519080825280601f01601f19166020018201604052801561081f5781602001600182028036833780820191505090505b5060405160240161083293929190611461565b604051602081830303815290604052915060e01b6020820180517bffffffffffffffffffffffffffffffffffffffffffffffffffffffff8381831617835250505050846040518463ffffffff1660e01b81526004016108939392919061149f565b6000604051808303816000875af11580156108b2573d6000803e3d6000fd5b505050506040513d6000823e3d601f19601f820116820180604052508101906108db91906115db565b5050505050565b8560000160009054906101000a900473ffffffffffffffffffffffffffffffffffffffff1673ffffffffffffffffffffffffffffffffffffffff166339255d5b8760010160009054906101000a900473ffffffffffffffffffffffffffffffffffffffff168860010160009054906101000a900473ffffffffffffffffffffffffffffffffffffffff1673ffffffffffffffffffffffffffffffffffffffff16632e5e74c689898989600067ffffffffffffffff8111156109a6576109a56112cc565b5b6040519080825280601f01601f1916602001820160405280156109d85781602001600182028036833780820191505090505b506040516024016109ed959493929190611624565b604051602081830303815290604052915060e01b6020820180517bffffffffffffffffffffffffffffffffffffffffffffffffffffffff8381831617835250505050846040518463ffffffff1660e01b8152600401610a4e9392919061149f565b6000604051808303816000875af1158015610a6d573d6000803e3d6000fd5b505050506040513d6000823e3d601f19601f82011682018060405250810190610a9691906115db565b50505050505050565b8560000160009054906101000a900473ffffffffffffffffffffffffffffffffffffffff1673ffffffffffffffffffffffffffffffffffffffff166339255d5b8760010160009054906101000a900473ffffffffffffffffffffffffffffffffffffffff168860010160009054906101000a900473ffffffffffffffffffffffffffffffffffffffff1673ffffffffffffffffffffffffffffffffffffffff1663232d2b5889898989600067ffffffffffffffff811115610b6357610b626112cc565b5b6040519080825280601f01601f191660200182016040528015610b955781602001600182028036833780820191505090505b50604051602401610baa95949392919061168d565b604051602081830303815290604052915060e01b6020820180517bffffffffffffffffffffffffffffffffffffffffffffffffffffffff8381831617835250505050846040518463ffffffff1660e01b8152600401610c0b9392919061149f565b6000604051808303816000875af1158015610c2a573d6000803e3d6000fd5b505050506040513d6000823e3d601f19601f82011682018060405250810190610c5391906115db565b50505050505050565b8460000160009054906101000a900473ffffffffffffffffffffffffffffffffffffffff1673ffffffffffffffffffffffffffffffffffffffff166339255d5b8660010160009054906101000a900473ffffffffffffffffffffffffffffffffffffffff168760010160009054906101000a900473ffffffffffffffffffffffffffffffffffffffff1673ffffffffffffffffffffffffffffffffffffffff1663b96731c2888888600067ffffffffffffffff811115610d1f57610d1e6112cc565b5b6040519080825280601f01601f191660200182016040528015610d515781602001600182028036833780820191505090505b50604051602401610d6594939291906116e7565b604051602081830303815290604052915060e01b6020820180517bffffffffffffffffffffffffffffffffffffffffffffffffffffffff8381831617835250505050846040518463ffffffff1660e01b8152600401610dc69392919061149f565b6000604051808303816000875af1158015610de5573d6000803e3d6000fd5b505050506040513d6000823e3d601f19601f82011682018060405250810190610e0e91906115db565b505050505050565b600073ffffffffffffffffffffffffffffffffffffffff82169050919050565b6000819050919050565b6000610e5b610e56610e5184610e16565b610e36565b610e16565b9050919050565b6000610e6d82610e40565b9050919050565b6000610e7f82610e62565b9050919050565b610e8f81610e74565b82525050565b6000610ea082610e62565b9050919050565b610eb081610e95565b82525050565b6000604082019050610ecb6000830185610e86565b610ed86020830184610ea7565b9392505050565b6000604051905090565b600080fd5b600080fd5b6000610efe82610e16565b9050919050565b610f0e81610ef3565b8114610f1957600080fd5b50565b600081359050610f2b81610f05565b92915050565b600060208284031215610f4757610f46610ee9565b5b6000610f5584828501610f1c565b91505092915050565b6000819050919050565b610f7181610f5e565b8114610f7c57600080fd5b50565b600081359050610f8e81610f68565b92915050565b60008060408385031215610fab57610faa610ee9565b5b6000610fb985828601610f1c565b9250506020610fca85828601610f7f565b9150509250929050565b6000610fdf82610e62565b9050919050565b610fef81610fd4565b82525050565b600060208201905061100a6000830184610fe6565b92915050565b600063ffffffff82169050919050565b61102981611010565b82525050565b60006020820190506110446000830184611020565b92915050565b6000602082840312156110605761105f610ee9565b5b600061106e84828501610f7f565b91505092915050565b7f4e487b7100000000000000000000000000000000000000000000000000000000600052601160045260246000fd5b60006110b182610f5e565b91506110bc83610f5e565b9250827fffffffffffffffffffffffffffffffffffffffffffffffffffffffffffffffff038211156110f1576110f0611077565b5b828201905092915050565b61110581610ef3565b82525050565b61111481610f5e565b82525050565b600060608201905061112f60008301866110fc565b61113c60208301856110fc565b611149604083018461110b565b949350505050565b60008115159050919050565b61116681611151565b811461117157600080fd5b50565b6000815190506111838161115d565b92915050565b60006020828403121561119f5761119e610ee9565b5b60006111ad84828501611174565b91505092915050565b60006080820190506111cb6000830187610fe6565b6111d860208301866110fc565b6111e56040830185611020565b6111f2606083018461110b565b95945050505050565b60008151905061120a81610f68565b92915050565b60006fffffffffffffffffffffffffffffffff82169050919050565b61123581611210565b811461124057600080fd5b50565b6000815190506112528161122c565b92915050565b6000806040838503121561126f5761126e610ee9565b5b600061127d858286016111fb565b925050602061128e85828601611243565b9150509250929050565b60006112a382610f5e565b91506112ae83610f5e565b9250828210156112c1576112c0611077565b5b828203905092915050565b7f4e487b7100000000000000000000000000000000000000000000000000000000600052604160045260246000fd5b600061130682610e62565b9050919050565b611316816112fb565b82525050565b6000608082019050611331600083018761130d565b61133e60208301866110fc565b61134b6040830185611020565b61135860608301846110fc565b95945050505050565b6000806000806080858703121561137b5761137a610ee9565b5b600061138987828801611174565b945050602061139a87828801611174565b93505060406113ab87828801611243565b92505060606113bc878288016111fb565b91505092959194509250565b600081519050919050565b600082825260208201905092915050565b60005b838110156114025780820151818401526020810190506113e7565b83811115611411576000848401525b50505050565b6000601f19601f8301169050919050565b6000611433826113c8565b61143d81856113d3565b935061144d8185602086016113e4565b61145681611417565b840191505092915050565b6000606082019050611476600083018661130d565b6114836020830185611020565b81810360408301526114958184611428565b9050949350505050565b60006060820190506114b46000830186610ea7565b81810360208301526114c68185611428565b905081810360408301526114da8184611428565b9050949350505050565b600080fd5b600080fd5b6114f782611417565b810181811067ffffffffffffffff82111715611516576115156112cc565b5b80604052505050565b6000611529610edf565b905061153582826114ee565b919050565b600067ffffffffffffffff821115611555576115546112cc565b5b61155e82611417565b9050602081019050919050565b600061157e6115798461153a565b61151f565b90508281526020810184848401111561159a576115996114e9565b5b6115a58482856113e4565b509392505050565b600082601f8301126115c2576115c16114e4565b5b81516115d284826020860161156b565b91505092915050565b6000602082840312156115f1576115f0610ee9565b5b600082015167ffffffffffffffff81111561160f5761160e610eee565b5b61161b848285016115ad565b91505092915050565b600060a082019050611639600083018861130d565b61164660208301876110fc565b6116536040830186611020565b61166060608301856110fc565b81810360808301526116728184611428565b90509695505050505050565b61168781611210565b82525050565b600060a0820190506116a2600083018861130d565b6116af6020830187611020565b6116bc60408301866110fc565b6116c9606083018561167e565b81810360808301526116db8184611428565b90509695505050505050565b60006080820190506116fc600083018761130d565b6117096020830186611020565b611716604083018561110b565b81810360608301526117288184611428565b90509594505050505056fea26469706673582212208adcfccee38c36cdc52088f7672a5a756dcd025a785fc127d5f491bcab02b6ab64736f6c634300080e0033",
  "devdoc": {
    "kind": "dev",
    "methods": {
      "deleteShares(address)": {
        "params": {
          "subscriber": "subscriber address whose subscription is to be deleted"
        }
      },
      "loseShare(address)": {
        "params": {
          "subscriber": "subscriber address whose units are to be decremented"
        }
      }
    },
    "version": 1
  },
  "userdoc": {
    "kind": "user",
    "methods": {
      "deleteShares(address)": {
        "notice": "allows an account to delete its entire subscription this contract"
      },
      "distribute(uint256)": {
        "notice": "Takes the entire balance of the designated spreaderToken in the contract and distributes it out to unit holders w/ IDA"
      },
      "loseShare(address)": {
        "notice": "lets an account lose a single distribution unit"
      },
      "spreaderToken()": {
        "notice": "Super token to be distributed."
      }
    },
    "version": 1
  },
  "storageLayout": {
    "storage": [
      {
        "astId": 11113,
        "contract": "contracts/NFTSpread.sol:NFTSpread",
        "label": "spreaderToken",
        "offset": 0,
        "slot": "0",
        "type": "t_contract(ISuperToken)9943"
      },
      {
        "astId": 11120,
        "contract": "contracts/NFTSpread.sol:NFTSpread",
        "label": "idaV1",
        "offset": 0,
        "slot": "1",
        "type": "t_struct(InitData)7088_storage"
      }
    ],
    "types": {
      "t_contract(IInstantDistributionAgreementV1)8963": {
        "encoding": "inplace",
        "label": "contract IInstantDistributionAgreementV1",
        "numberOfBytes": "20"
      },
      "t_contract(ISuperToken)9943": {
        "encoding": "inplace",
        "label": "contract ISuperToken",
        "numberOfBytes": "20"
      },
      "t_contract(ISuperfluid)10506": {
        "encoding": "inplace",
        "label": "contract ISuperfluid",
        "numberOfBytes": "20"
      },
      "t_struct(InitData)7088_storage": {
        "encoding": "inplace",
        "label": "struct IDAv1Library.InitData",
        "members": [
          {
            "astId": 7084,
            "contract": "contracts/NFTSpread.sol:NFTSpread",
            "label": "host",
            "offset": 0,
            "slot": "0",
            "type": "t_contract(ISuperfluid)10506"
          },
          {
            "astId": 7087,
            "contract": "contracts/NFTSpread.sol:NFTSpread",
            "label": "ida",
            "offset": 0,
            "slot": "1",
            "type": "t_contract(IInstantDistributionAgreementV1)8963"
          }
        ],
        "numberOfBytes": "64"
      }
    }
  }
}